:10400000601C0020C19F0200497F00004D7F00001E
:10401000A70A0A010042000004180FAC1067AF00A5
:104020000000000000000000000000000000000090
:1040300000000000E0250400000000000000000077
:104040000000000000000000FFFFFFFFFFFFFFFF78
:10405000FFFFFFFF00600F000000000000000000F5
:10406000FFFFFFFFFFFFFFFF8000000000000000D8
:104070000000000000000000000000000000000040
:1040800000000000000000004C5700204C570020AA
:10409000601C002014A2040090F003000013002014
:0C40A000D412002000E00F00000000001F
:10420000601C0020C19F0200497F00004D7F00001C
:104210005D300100517F0000597F0000BD9F02000A
:10422000BD9F0200BD9F0200BD9F0200BD9F020016
:104230005D7F0000BD9F0200BD9F0200BD9F020088
:10424000D07F0000D07F0000D07F0000D07F000032
:10425000D07F0000119B000041A80000D07F00002B
:10426000D07F0000D07F000021990000BD730100C5
:10427000D07F0000D07F0000D07F0000D07F000002
:10428000D07F0000D07F0000D07F0000BD9F0200E3
:10429000D07F000089920000D07F0000D07F000016
:1042A000D07F00008993000061930000D07F000060
:1042B000D07F0000D07F0000D07F0000DD600200D2
:1042C000696002006560020009580200D9600200BE
:1042D0006D6002008D600200716002006D48020096
:1042E00021610200D07F0000D07F0000C582000065
:1042F000D07F0000D07F0000D07F0000BD9F020073
:10430000D07F0000D07F0000D07F0000D07F000071
:10431000D07F0000D07F0000D07F0000D07F000061
:10432000D07F0000D07F0000D07F0000D07F000051
:04433000D07F00003A
:10433400F8B500BFF8BC08BC9E467047F8B500BF8E
:10434400F8BC08BC9E46704710B5054C237833B9B9
:10435400044B13B1044800E000BF0123237010BDD7
:104364008827002000000000E496040008B5034BF1
:104374001BB10349034800E000BF08BD0000000072
:104384008C270020E4960400154B002B08BF134B28
:104394009D46A3F5803A00218B460F461348144AE4
:1043A400121A3AF089FD0F4B002B00D098470E4BA0
:1043B400002B00D098470020002104000D000D4878
:1043C400002802D00C4800E000BF3AF027FD20008E
:1043D400290013F01BFA3AF00DFD00BF000008009D
:1043E400601C00200000000000000000882700205E
:1043F4004C570020000000000000000007B5022315
:104404000DF106007F222B2104F0FEFABDF80620F0
:104414001049012016F0B2FD02230DF106007F229F
:104424002C2104F0F1FABDF806200B49012016F006
:10443400A5FD02230DF106007F222D2104F0E4FAEC
:10444400BDF806200549012016F098FD03B05DF87B
:1044540004FB00BFDBF20300E6F20300F3F2030007
:10446400002313B502AC24F8023D224602237F2127
:104474002B2004F003FB224602237F212C2004F08E
:10448400FDFA022322467F212D2004F0F7FA02B020
:1044940010BD000008B5FFF7E3FFBDE80840014880
:1044A4002AF018BDAC43002007B5094B0948009316
:1044B400002300681A46194623F020FD064BC2B2B9
:1044C40018700120054903B05DF804EB16F056BDE1
:1044D400FFFF0F009C220020A7270020B3F2030057
:1044E4002DE9F04383B06B46144C02AF2278144894
:1044F400A3EB0213083B9D46124B0DF108080093F1
:10450400920000234146006823F0F8FC0025DFF800
:1045140038902378AEB2B6EB830F05F1010503DBC7
:104524000437BD46BDE8F08303F0FCFE58F82620AE
:104534004946012016F022FDEBE700BFA727002023
:104544009C220020FFFF0F008FF20300F7B500202C
:1045540001F00EFE05461A4F02461A49012016F0D4
:104564000DFD01AB6A462946386823F081FC019AA7
:104574001549012016F002FD019EF6B130463AF0CD
:1045840071FC0446C8B1334602462946386823F014
:1045940055FB00250D4E019AEBB29A4205F1010537
:1045A40005D8204603B0BDE8F0403AF063BCE25CB5
:1045B4003146012016F0E2FCEDE703B0F0BD00BF88
:1045C4009C2200208FF2030097F20300A9F203005B
:1045D40008B527F077F9BDE8084042B20149012047
:1045E40016F0CCBC81F2030010B5002001F0C4FD2C
:1045F40004462AF0B1FB05490246012016F0BEFC30
:1046040060B2BDE8104027F01DB900BF00F30300FD
:1046140008B52AF0A1FB1CF0E9FDBDE808400246FC
:104624000149012016F0AABCCCF2030008B52AF017
:1046340093FB01211CF0D7FABDE808400246024969
:10464400012016F09BBC00BFCCF203001FB5012370
:104654000022009306210DF10F0315F02BFA20B967
:104664009DF80F3023B103F0C3FC05B05DF804FBE3
:1046740003F0D2FCF9E7000030B50024144D85B0F6
:104684002C7014F00FF8022817D100900DF10E03CE
:1046940022460321012015F00DFABDF80E0048B1A1
:1046A400204603F0CDFC4FF47A6128462AF01EFC24
:1046B40005B030BD03F09CFCFAE710F00DFC054B8F
:1046C4000090054A0549012016F058FCF0E700BFA8
:1046D400AC430020FF1104005BF1030060F1030010
:1046E40008B513F0DFFF02280CD10022064B01208D
:1046F4001A7007F02BFBBDE808400246034901206D
:1047040016F03CBC08BD00BFA443002060F20300C7
:104714002DE9F0414FF000081D4F1E4E3D7886F8FC
:1047240000801D4C85B11D49012016F027FC2DF099
:10473400C5FC012340F2DC51304687F80080237029
:10474400BDE8F0412AF0D2BB237843B113F0AAFFAD
:10475400022804D02570BDE8F04103F03FBF13F0F8
:10476400A1FF0F490246012016F008FC40F2DC517B
:1047740008482AF0BBFB13F095FF022803D101235C
:1047840023702DF09BFC40F2DC510248D8E700BFB7
:10479400A5270020B4430020A627002074F10300BD
:1047A40082F1030091281FB518D1002003F034FCD6
:1047B40068461AF05BFF009B684643F08103009350
:1047C4001AF05EFF104B1B7823B140F2DC510F4806
:1047D4002AF08CFB002005B05DF804FB9028F9D189
:1047E400002003F005FC68461AF040FF009B684671
:1047F40023F0010343F0800300931AF041FF0448BF
:104804002AF068FBE6E700BFA6270020B443002097
:10481400A443002070B504462AF09EFA05461CF015
:10482400ABF9052820D8DFE800F00315171B191D84
:104834001249012016F0A2FBF5B1214628461CF0CE
:10484400D1FC034690B92246BDE870400C490120D2
:1048540016F094BB0B49ECE70B49EAE70B49E8E790
:104864000B49E6E70B49E4E70B49E2E70B49012072
:10487400BDE8704016F082BB70BD00BF90F003002D
:104884001CF10300A7F00300BCF00300CDF003000B
:10489400DEF00300F6F003000EF1030044F1030020
:1048A40010B5002001F064FC04462AF055FA60B209
:1048B400BDE81040FFF7AEBF08B50023064A6FF00D
:1048C4000A001370054A1370FFF7A4FFBDE80840FF
:1048D40003482AF0FFBA00BFA5270020A62700201E
:1048E400AC4300201FB5044600903C4B3C4A3D4974
:1048F400012016F043FB02237F220CB1B72C37D1E1
:104904002C210DF10E0004F07FF8BDF80E300DF1EE
:104914000E020133ADF80E307F2102232C2004F067
:10492400ADF802237F222B210DF10E0004F06CF868
:10493400BDF80E300DF10E020133ADF80E307F21BB
:1049440002232B2004F09AF8BDF80E30632B0DD807
:10495400012440F2DC51244B1C70244B1C7024486D
:104964002AF0C4FA2349204616F008FB04B010BD0F
:104974002D210DF10E0004F047F8BDF80E300DF1B5
:104984000E020133ADF80E307F2102232D2004F0F6
:1049940075F802237F222B210DF10E0004F034F868
:1049A400BDF80E300DF10E020133ADF80E307F214B
:1049B40002232B2004F062F80F49012016F0DEFADE
:1049C400BDF80E30632BD1D800220124074B4FF4DD
:1049D400FA711A70044B1C70C1E700BF39F203006E
:1049E4005BF1030060F10300A6270020A527002047
:1049F400B443002042F2030051F20300002307B540
:104A0400044A00930449054B012016F0B7FA03B099
:104A14005DF804FB28F2030060F1030039F203009F
:104A2400FFF714BE09B9FFF711BE704738B521B9B5
:104A3400BDE8384011482AF04DBA012910D10228A6
:104A44000ED10F4C00202578012D0AD103F0E4FA91
:104A54004FF6FF72FF23114600200AF02DFA25704D
:104A640038BD03F0C5FA4FF6FF72FF231146092043
:104A74000AF022FA00232370F2E700BFA4430020C7
:104A8400A427002038B5C37B05460BB1832038BD6D
:104A9400C47C2CB902F03AFA20B9EB7B002BF5D197
:104AA4008120F4E72046F2E7C37B10B504460BB13E
:104AB400832010BDC37C012B13D003D3402B13D010
:104AC4008120F6E7017D82898B1C9A4218D3806885
:104AD40015F0B4FD0EF03AFBA0B9E37B002BE7D14F
:104AE400EEE70EF04BFBF7E7037D81899A1C9142B8
:104AF40006D38268591C515CD05C19F0B1FBEBE71A
:104B04008020D6E70020D4E7F8B5C37B04460BB178
:104B14008320F8BDC37C052B29D8DFE803F0032AE2
:104B240035414C4F057D8289AB1C9A4201D28020CD
:104B3400EFE7ADB22946806815F080FD0646A0680F
:104B440002352844A78915F091FD28440130874295
:104B5400EDD32946A289A06815F076FD01463046BA
:104B64000DF0EAFF002848D1E37B002BD0D181204F
:104B7400CFE7017D82898B1C9A42D8D3806815F0D7
:104B84005DFD0DF0F9FFEDE7037D81895A1C91422B
:104B9400CDD38268591C1144D05C0EF01DF8E1E7B6
:104BA400017D82898B1C9A42C1D3806815F046FD31
:104BB4000EF094F8D6E70EF0EDF8D3E7057D828980
:104BC400AB1C9A42B3D3ADB22946806815F036FDCA
:104BD4000646A06802352844A78915F047FD2844F5
:104BE40001308742A3D32946A289A06815F02CFD81
:104BF400014630460EF016F9B4E7002089E7C37B7E
:104C04002DE9F7430446002B40F03E81C37C042B7E
:104C140000F0B7800BD8012B00F088803FD3022B23
:104C240000F09480032B00F0A18081203DE0402B14
:104C340000F0DA800FD8052B00F0B380062BF4D1F6
:104C4400017D82898B1C9A422ED3806815F0F6FC74
:104C540011F00EFC61E0412B00F00581422BE4D100
:104C6400037D8289D91D8A421ED39DB28068691C46
:104C7400C65C15F0E3FC0746A068EB1CA289291D5D
:104C840010F8038015F0DAFCA36806355B5D424634
:104C9400009339460346304619F0BAFD3DE0057DE0
:104CA4008289AB1C9A4203D2802003B0BDE8F08312
:104CB400ADB22946806815F0C1FCA289E91C8A427C
:104CC400064605F10203EFD3881C8242ECD3A068A8
:104CD4000535C75C15F0B2FC8046A068B4F80C90AA
:104CE400284415F0C3FC284401308145DCD329460F
:104CF400A289A06815F0A8FC8146A068284415F094
:104D0400B5FC01300544A0684B4610FA85F50095C2
:104D140042463946304611F0C3FF002840F0B680C1
:104D2400E37B002B14BF83208120BEE7057D8289AD
:104D3400EB1C9A42B8D3ADB22946806815F07EFCCC
:104D4400A3680235595D12F091F8E6E7057D828982
:104D5400EB1C9A42A8D3ADB22946806815F06EFCCC
:104D6400A3680235595D11F0ADFAD6E7017D828959
:104D74008B1C9A4298D3806815F060FC11F010FBEC
:104D8400CBE7057D8289EB1C9A428DD3ADB22946CF
:104D9400806815F053FCA3680235595D11F0B4FC2A
:104DA400BBE7057D8289AB1C9A42FFF47DAFADB2AF
:104DB4002946806815F042FCA289E91C8A4206460D
:104DC40005F10203FFF470AFA068C75C8B1C9A4224
:104DD40007D315F033FC02463946304611F06CFD1A
:104DE4009BE74FF6FF72F7E7057D8289AB1C9A4279
:104DF400FFF45AAFADB22946806815F01FFCA289B2
:104E0400E91C8A42064605F10203FFF44DAF881CF3
:104E14008242FFF449AFA0680535C75C15F00EFC6B
:104E24008046A068B4F80C90284415F01FFC284470
:104E340001308145FFF438AFA2892946A06815F0F6
:104E440003FC8146A068284415F010FC0130054499
:104E5400A0684B4610FA85F500954246394630461F
:104E640019F0BEFC59E7057D8289EB1C9A42FFF4D8
:104E74001BAFADB22946806815F0E0FBA36802358C
:104E8400595D19F0BDFC48E783200EE700200CE7CC
:104E9400F8B5C37B04460BB18320F8BDC37C022B59
:104EA40021D004D8ABB1012B1AD08120F5E7412BD6
:104EB4001CD0422B1DD0402BF7D1037D81899A1C35
:104EC40091422DD38268591C515CD05C19F002FBCD
:104ED40001E010F0C7F928BBE37B002BE5D0DBE74A
:104EE40010F0D6F9F7E710F0E9F9F4E719F038FB18
:104EF400F1E7037D8289591D8A4211D39DB28068EE
:104F0400691CC65C15F09AFBA2890746E91CA068D7
:104F140015F094FB39460246304619F061FBDAE796
:104F24008020BAE70020B8E7C37BF7B50446002B1E
:104F340040F0D280C37C072B00F2D080DFE813F06E
:104F440008003800590086009B00AA00B600C9007A
:104F5400037D8289591C8A42C0F0C2809DB2691CBB
:104F6400881C8242C0F0BC80A068C75C15F066FB58
:104F7400EB1CA6895A1C964228BFA268014624BF8E
:104F8400D25C2B1D03F1010038BFFF2286422ABFE9
:104F9400A068FF23C35C38460EF07CFE002840F076
:104FA400A180E37B002B14BF8320812003B0F0BDDC
:104FB400067D8589731C9D42C0F09280B7B2BA1CED
:104FC400954207F10103C0F08B808068C15C1346F1
:104FD4000132954224BFC25CFB1C03F1010738BFB8
:104FE400FF22BD422CBFC35CFF23805D0EF06FFE29
:104FF400D4E7037D8289591C8A4271D39DB2A91CCE
:105004008A4205F101076BD3881C824268D3A068E9
:10501400C65CC75D15F012FB291DB4F80CC04B1C0F
:105024009C4528BFA368024624BF5B5C691D01F14F
:10503400010038BFFF23844532BFFF21A068415CD3
:105044003046009139460EF05AFEA7E7027D818969
:10505400501C814293B222BFA0680133805C03F1EB
:10506400010238BFFF2091422ABFA268FF21D15C10
:105074000EF061FE92E7017D8289CB1C9A422FD308
:105084008068455C013115F0D9FA014628460EF0D6
:105094000FFE83E7037D81899A1C914220D38268A5
:1050A400591C515CD05C0EF01EFE77E7037D8289AB
:1050B400191D8A4214D3806899B2C55C4B1C023115
:1050C400C65C15F0BBFA3146024628460EF025FEB2
:1050D40064E70EF038FE61E7832067E7812065E727
:1050E400802063E7002061E72DE9F04FC37B8FB098
:1050F40004461BB183200FB0BDE8F08FC37C0B2B9B
:105104004DD8DFE813F00C00550030014C004C0082
:105114004C0057014C004C004C00C401D801037DE5
:105124008289581C824234BF4FF0FF08A06899B2AC
:1051340024BF10F80380013118F0070509D10F1DB1
:10514400BA422FD3A06815F073FA0646B9B2FF2706
:1051540011E0022D25D101F108039A42C0F0DF814C
:10516400A5680D4499B24B1C9A421BD34FF0FF36ED
:10517400A268575C99B2A2890B1D9A4215D3A06804
:1051840015F056FA00903B462A463146404607F051
:105194007DF8002840F0C181E37B002BAAD1812057
:1051A400A9E700254FF0FF36D1E74FF0FF30E9E7DC
:1051B400037D82899DB203339A4218D329468068BD
:1051C40015F039FA0646033516F0070712D1A289FD
:1051D40005F104084245C0F0AD802946A06815F0E9
:1051E40027FA83461FFA88F54FF0FF0A18E04FF0BC
:1051F400FF36E9E7022F40F09C80A28905F10803FD
:105204009A42C0F08E81A7682F449DB26B1C9A42CB
:10521400C0F090804FF0FF3BA26812F805A09DB249
:1052240016F0100340F0898016F0600903D0B9F13C
:10523400600F40F07B81A28905F108039A42C0F017
:105244007281A168294409919DB2B9F1000F03D07C
:10525400B9F1600F40F06B81AB1C9A42C0F06C81D5
:105264002946A0680A9315F0E9F980460A9B9DB285
:10527400B9F1200F02D0B9F1400F62D1A289AB1C61
:105284009A420A935DD32946A06815F0D7F981465E
:105294000A9B9DB206F01803082B55D1A2896B1CFA
:1052A4009A4251D3A268525D9DB20A9271044ED5BE
:1052B400A2892B1D9A424AD32946A0680C9315F063
:1052C400B7F90C9B0B909DB216F4004344D0A2890D
:1052D40005F110039A423ED3A2682A440C929DB26F
:1052E400F2033BD5A289AB1C9A4237D32946A06866
:1052F4000D9315F0A3F90D9B9DB2B30331D5A2898B
:105304006B1C9A422DD3A3685B5DCDE906030C9B0D
:10531400CDF8048005930B9B3A4604930A9B5946A7
:10532400CDE90293099B30460093534606F0B0FF43
:105334002FE700274FF0FF3B56E700234FF6FF7897
:1053440009934FF6FF79A5E7FF230A93AEE74FF0E1
:10535400FF330B93B8E700230C93C1E74FF6FF70BC
:10536400CBE7FF23D1E7017D8289481C824234BF09
:10537400FF25A0688BB224BF455C0133A90714D56F
:105384009E1CB24211D31946A06815F057F9014684
:10539400B3B2EA060CD5A0895A1C904208D3A2687D
:1053A400D25C284606F02EFFF3E64FF6FF71F0E7D5
:1053B400FF22F6E7037D8289591C8A429DB228BFE9
:1053C4000135806805F102062CBF10F803804FF008
:1053D400FF08B24234D3294615F030F98146B5B2FC
:1053E400A2896B1CA0689A422ABF10F805A04FF04E
:1053F400FF0A9DB218F0070625D105F1040B5A45A2
:1054040031D3294615F014F907461FFA8BF54FF0EE
:10541400FF0BA289691C8A4238BFFF23A06832BFF0
:105424000993435D8DB2284428BF09930A9215F06D
:105434001DF90A9A28440130824217D280205AE684
:105444004FF6FF79CCE7022E0CD105F108039A42FE
:1054540070D346199DB210F805B00135ADB24FF0C6
:10546400FF37D6E700264FF0FF37D0E7A289294659
:10547400A06815F0E9F8099B0390CDE901B3009603
:105484003B4652464946404606F0B0FF81E6007D61
:10549400A289031D9A42D1D3A56886B2F31CB21C1B
:1054A400711C0436EB5CAA5C695C285C354400958D
:1054B40007F094F86DE6037D8289591C8A42BDD3B6
:1054C40080689FB2C65C791C16F01F0504D115F0E4
:1054D400AFF8791D002206E0022D1BD142184FF0CF
:1054E400FF3007F1090106F00703022B01BFA3688F
:1054F4004D1C5B5CA9B206F0180518BFFF23082DEC
:1055040012BFFF25A5686D5C01460095304607F083
:1055140053F93EE64FF0FF30DCE70020EBE50025D1
:1055240021E6002772E6002309938EE609934FF6DD
:10553400FF789DE600268EE7B9F1200F4FF6FF783D
:105544007FF499AEFDE62DE9F04FC37BADB0824602
:105554001BB183202DB0BDE8F08FC37C0B2B00F270
:10556400A480DFE813F00C00B200A200A200EA005D
:105574009D01A200BB01FA0105029003BE03037D55
:1055840082899CB202339A4217D32146806815F06F
:1055940055F80646023416F00705BAF80C200FD168
:1055A400271DBA42C0F084802146DAF8080015F0BD
:1055B4003FF88046BCB2FF2716E04FF6FF76EAE7D5
:1055C400022D74D104F108039A42C0F0A483DAF8DE
:1055D400085025449CB2631C9A4269D34FF0FF38AB
:1055E400DAF80820175D9CB2BAF80C2004F1040B19
:1055F4005A4560D32146DAF8080015F019F88146B7
:105604001FFA8BF4BAF80CB0631C9B4538BFFF2318
:10561400DAF8080032BF1B93025D9CB2204428BF15
:105624001B9215F023F820440130834546D32146CC
:10563400BAF80C20DAF8080015F006F88346DAF810
:105644000800204415F012F801300444A4B216F402
:10565400904F36D0BAF80C20A31C9A42C0F05D8358
:105664002146DAF808001C9314F0E8FF1C9B9CB256
:10567400BAF80C20631C9A4225D3DAF808301B5D73
:10568400CDE903031B9BCDF808B0CDE900932A466E
:105694003B464146304609F0CDFF002840F03983AF
:1056A4009AF80F30002B7FF454AF812052E7002585
:1056B4004FF0FF387FE74FF0FF39A3E74FF0000BBF
:1056C400C5E74FF6FF70FF23DAE7037D82899CB2BA
:1056D40002339A4219D32146806814F0AFFF06467C
:1056E400023416F0070513D1BAF80C20231D9A4290
:1056F4001FD32146DAF8080014F09AFF2A4601461F
:10570400FF23304609F0BEFCC7E74FF6FF76E8E713
:10571400022D0ED1BAF80C3004F108018B42DAF8EC
:105724000830C0F0FD821A198CB21B5D4FF0FF31B6
:10573400E7E700224FF0FF31E2E7037D82899CB264
:1057440002339A4217D32146806814F077FF064645
:10575400023416F00705BAF80C200FD1271DBA42FF
:10576400C0F08D802146DAF8080014F061FF80460D
:10577400BCB2FF2716E04FF6FF76EAE7022D7DD193
:1057840004F108039A42C0F0CD82DAF808502544A7
:105794009CB2631C9A4272D34FF0FF38DAF80820A7
:1057A400175D9CB2BAF80C2004F104094A4569D388
:1057B4002146DAF8080014F03BFF1FFA89F41B9025
:1057C400BAF80C90631C994538BFFF23DAF8080037
:1057D40032BF1C93025D9CB2204428BF1C9214F07B
:1057E40045FF20440130814550D32146BAF80C20AE
:1057F400DAF8080014F028FF8346DAF80800204499
:1058040014F034FF01300444A4B240F608031E42ED
:105814003FD0BAF80C20A31C9A42C0F085822146DE
:10582400DAF808001D9314F009FF81461D9B9CB211
:10583400BAF80C30621C93422DD3DAF808301B5DA1
:1058440094B2B20529D5BAF80C20211D8A4224D37A
:105854002146DAF808001D9314F0EAFE1D9BCDE9F9
:1058640004301C9BCDE902B901931B9B2A4600938B
:1058740041463B4630460BF055FC0EE700254FF001
:10588400FF3876E74FF0FF331B9399E74FF0000B97
:10589400BBE74FF6FF79FF23D3E74FF0FF30DEE796
:1058A400037D8289991D8A42C0F031829CB280684E
:1058B400611CC55C14F0C2FEBAF80C200646E11C5B
:1058C400DAF8080014F0BAFEDAF8083005340246B3
:1058D4001B5D3146284609F0EFFADEE6037D828936
:1058E4009CB202339A4217D32146806814F0A6FE74
:1058F4000646023416F00705DAF808000FD1BAF8A4
:105904000C20271DBA4224D3214614F091FE2A46C6
:105914000146BCB2FF2314E04FF6FF76EAE7022DFE
:1059240017D1BAF80C3004F108018B42C0F0FF81A2
:1059340002198CB2611C8B420CD3035D8CB24FF004
:10594400FF31DAF808000444009430460CF098FD66
:10595400A3E600224FF0FF31DCE7037D81895A1C66
:1059640091422ABF8268FF20D05C0CF0F9FB94E6D8
:10597400037D8289591C8A429EB231BFFF2381680C
:105984000136CB5C06F102042CBF27932793A24275
:1059940018D33146806814F051FE8046A6B218F040
:1059A4000704BAF80C2010D1351D954245D831466C
:1059B400DAF8080014F03CFE8146AEB21C94FF23D2
:1059C4001B9318E04FF6FF78E9E7022C39D106F172
:1059D4000803934200F2AD81DAF8081031441C91B7
:1059E4009EB2731C934229D84FF0FF39DAF808208D
:1059F400925D9EB21B92BAF80C20731C9A4235BF7A
:105A0400FF23DAF808102893895D28BF9EB208F0B6
:105A1400180328BF2891102B16D1711C8A42DAF87A
:105A24000830C0F08981985D8EB21E90334429936A
:105A34001E9B06EB8306B6B20AE01C944FF0FF39B6
:105A4400BDE700231C93F9E7FF231E93002329934A
:105A540018F4807F6CD0B41CA24269D33146DAF8C2
:105A6400080014F0EBFDA6B22090BAF80C20731CC9
:105A74009A4235BFFF23DAF808102A93895D24BFC0
:105A84009EB22A9118F4007456D0731C9A4253D3D0
:105A9400DAF80810895D9EB2219118F4087F4ED07F
:105AA400351DAA424BD33146DAF8080014F0C0FD84
:105AB400AEB22290BAF80C20002C44D006F11003A8
:105AC400934242D8DAF80840A11923919EB2731C7C
:105AD40093428BBFFF23DAF808101D93895D9CBFA6
:105AE4009EB21D911D9B013BDBB2FB2B8BBF0023A0
:105AF400DAF808302B939B199FBF2B931D9BF61844
:105B0400B6B218F4806300F0AC80DAF80800741CB4
:105B1400855DA4B2EF0740F11281214614F08EFD99
:105B2400F41C2490A4B2A90712D44FF6FF7018E015
:105B34004FF6FF73209398E7FF232193ADE74FF0CF
:105B4400FF332293B6E72394C1E700232393BEE7F0
:105B54002146BAF80C20DAF8080014F06FFD02347C
:105B6400A4B215F0040B02D14FF0FF0E09E0DAF8ED
:105B7400083013F804E00134A4B203EB040B7444BA
:105B8400A4B215F0080102D1FF260B4616E0DAF89C
:105B940008100E5D013416F00F03A4B200F0D38098
:105BA400214404EB4304A4B2320901D1134605E0B5
:105BB400DAF80830234404EB4204A4B2EA0606D41B
:105BC4004FF0FF0CCDF87CC0CDF894C00DE0DAF8AE
:105BD40008703A5D1F92621C92B217F802C0A21CB0
:105BE40092B2BA5C03342592A4B215F0200747D0D0
:105BF400DAF808703A5D2692621C92B20234BA5CFA
:105C040017FA84F7CDE91727269ACDE91061169281
:105C1400259A0D90CDE914C21F9ACDE90EEBCDE97A
:105C24001232249B4A46CDE90B532B9B41460A93DF
:105C34001D9B0993239B0893229B0793219B069307
:105C44002A9B0593209B0493299B279803931E9BCF
:105C54000293289B01931B9B00931C9B0BF0C0FE9B
:105C64001BE5FF224FF6FF70CDE9252294461F92D3
:105C7400194616469B469646249015461F46C1E78C
:105C8400FF222692BEE7037D8289591C8A423ED3B5
:105C940080689EB2C55C711C15F01F0405D114F018
:105CA400C7FC2246711DFF2309E0022C15D106F121
:105CB40009034218C35C4FF0FF3006F10A0105F0F6
:105CC4001804082C12BFFF21DAF80840615C009127
:105CD4000146284609F028FADFE400224FF0FF309D
:105CE400E1E7007DBAF80C20031D9A420FD3DAF8DD
:105CF400084085B2EB1CAA1C691C0435E35CA25C59
:105D0400615C205C2C44009409F0F6FAC5E4802020
:105D140020E400201EE400255DE44FF6FF70A7E4B4
:105D2400002202E5002534E54FF6FF7980E50022E4
:105D340000E600231C9354E6FF211E9176E64FF6FD
:105D4400FF732493EFE619462EE7C37B10B5044690
:105D54000BB1832010BDC37C412B03D0422B0FD049
:105D64008120F7E7037D81895A1C914212D382680E
:105D7400D05C18F03FFE78B9E37B002BE9D1EFE764
:105D8400037D81895A1C914204D38268D05C18F047
:105D940079FEF0E78020DDE70020DBE738B5C37B40
:105DA4000446002B437D14BF8325C325012B1DD13D
:105DB4000368028A5988587913F0ACF9B0B140F2FB
:105DC400064223685B88934209D0B3F5805F06D00E
:105DD400212B07D12046BDE83840FFF785B9E37B86
:105DE40013B18325284638BD8125FBE7637D002B4D
:105DF400F8D12368228A5988587913F082F9002847
:105E0400F0D023685B88062B32D012D8032B25D020
:105E140006D8002BE6D12046BDE83840FEF732BE56
:105E2400042B20D0052BDDD12046BDE83840FEF7F9
:105E3400E6BE212B21D006D8082BD3D12046BDE8BD
:105E44003840FFF771B8B3F5407FC8D0B3F5805F31
:105E5400C8D12046BDE83840FFF777BF2046BDE8EB
:105E64003840FEF721BE2046BDE83840FEF74CBE60
:105E74002046BDE83840FFF70BB82046BDE838405F
:105E8400FFF761BB70470120704701207047012074
:105E9400704770470020704700207047002070470B
:105EA4000020704700207047002070470120704791
:105EB40001207047B52070470020704700207047CC
:105EC4000020704700207047704700207047002072
:105ED4007047704770477047002070470020704734
:105EE40070470020704784207047704770477047A0
:105EF4000120704784B004AB03E90700012004B01B
:105F04007047704700207047704770477047002003
:105F14007047704700F022BD03207047002070478F
:105F2400034B1B681878012808BF0220704700BF84
:105F3400EC3B00200020704703460120024AC3E9DD
:105F4400032000221A7070470100FEFF704770475B
:105F540070470020704700207047002070470020E1
:105F6400704770470020704770470020704700203A
:105F740070470020704700207047002070470020C1
:105F8400704700207047002070477047B520704765
:105F9400002070470020704770470020704770470A
:105FA4007047B520704770477047704700207047AE
:105FB400704770470023FF21084A137082F8783035
:105FC40082F8653082F8773082F8793082F87A1076
:105FD40082F87B30024A1360704700BFA827002074
:105FE400BC430020F8B50D468C680A68064628496B
:105FF400202002F0D4FE6B687BB92649202002F0F1
:10600400CEFE202010F0BEFF2349202002F0DCFE4B
:10601400BDE8F840202010F0B5BF002EF1D01F4D90
:106024001F4E204F013C14F8013F23B91A49202088
:1060340002F0CAFEE5E7752B18D0762B18D0772B23
:1060440018D0732B18D0722B18D0712B18D0622B48
:1060540018D06E2B18D02A2B18D01349134A212B91
:1060640018BF1146202002F09AFEDCE72946F9E722
:106074003146F7E73946F5E70D49F3E70D49F1E70E
:106084000D49EFE70D49EDE70D49EBE70D49E9E768
:10609400AD6904005BF403001D2A040019F4030035
:1060A4000DF4030024F4030065F4030062F4030018
:1060B40030F403003AF4030045F4030050F4030001
:1060C4005AF403005FF40300F0B50026204A92F866
:1060D4007B30184452FA80F090F865C090F866500E
:1060E40030461C4BA5EB0C051F78EDB2F4B2A5426B
:1060F40025D90CEB060313445B7811B10CB92D2B95
:1061040017D0782B1FD0582B05D108B137240AE0BB
:10611400013C012C14D9602B17D8402BF6D83A2B0C
:1061240034BF302400241B1BDBB29F4203D900FB85
:1061340007300136DAE70523002082F87930F0BD14
:1061440010270020F5E70028E2D05724EBE700BF32
:10615400A8270020F81D0020FFF72CBF034B93F85D
:10616400770093F87B30C01AC0B27047A82700208C
:106174000021FFF7A9BF000010B50A4B93F87B205C
:10618400024453FA82F292F8652013445C78A4F135
:106194002D0359425941FFF797FF2D2C08BF404268
:1061A40010BD00BFA827002030B50C4A92F87B3000
:1061B4000344C043DBB2C00F39B1D51895F866402B
:1061C40095F86550641B241A0C7042FA83F393F813
:1061D40065301844024B184430BD00BFA827002086
:1061E400A9270020F7B515460E460DF107011C46F8
:1061F400FFF7DAFF9DF807300746AB4288BF8DF8FA
:1062040007501CB19DF807402C1BE4B222463046CF
:10621400002100F077FB30199DF80720394600F083
:1062240015FB9DF8070003B0F0BD38B50C460123FB
:106234000822FFF7D7FF04F10803621E043413F8A1
:10624400011D12F8015FA3421D701170F7D138BD12
:1062540038B5054601460120FFF7C4FED5E90143E0
:106264006CB91C46084D236863B12946202002F00E
:1062740096FD21460020FFF7B5FE0C34F3E71B78AA
:106284006E2BEFD038BD00BF4D2B040008B5044978
:10629400202002F084FDBDE80840202010F072BEEA
:1062A400CDF3030038B5FFF7F1FF0024054D611964
:1062B4000C34631953F80C3C03B938BD0020FFF7C4
:1062C40091FEF4E7F00504002DE9F84F1F4B204D33
:1062D40053F820201F49202002F061FD2B681BB9D0
:1062E400BDE8F84FFFF7DEBF1B4FFFF7CFFF0026D7
:1062F400B946DFF86CA097F87B30F4B2013B9C42BE
:1063040004DB2868BDE8F84FFFF7A2BF47FA86F31D
:1063140093F8658000234C44C84494F8662094F8AC
:10632400651003F1010B521ADBB2D2B2934205D3CA
:106334000A49202002F033FD0136DCE743445A7851
:106344005146202002F02BFD5B46E6E7FC1D0020B1
:10635400BC430020C8F30300A82700204E2B0400F0
:10636400486E04002DE9F74F884C94F87730002BE1
:1063740000F0A180864B671C1B7813F0010F1FD01F
:106384000025844E14E0631993F8662093F8653071
:106394002020D21A44FA85F393F86510D2B2394416
:1063A40010F0EBFD3146202002F0F9FC0135EDB28E
:1063B40094F87730AB42E6D87749202002F0EFFC1E
:1063C400002694F87730DFF8DCE10193734B4FF04B
:1063D4000008714645461EF8012B91F801C007EBF1
:1063E400020AACEB020C5FFA8CFC1868002852D04D
:1063F4000138D14619E02AB9002D4AD04FF00108DE
:106404000C33F2E719F8011BA1F1410BBBF1190F91
:1064140098BF2031A2F1410B98BFC9B2BBF1190F4B
:106424009CBF2032D2B28A42EAD1A9EB0A0161456B
:1064340010F8012FDFD1002ADED11D46584B01365A
:106444001D6094F87B30F6B2013384F87B30D5E9D3
:106454000123002A35D01B786E2B31D03F2B23D05B
:106464004FF000094FF0070BC846042394F8771047
:10647400AA68B14212F808702BD8AFB1904498F8CA
:1064840001302A2B10D0212F1CBF032384F879302C
:106494000AE01D46B4E7B8F1000F01D1002DCDD1BB
:1064A4000223002584F8793094F87900002869D112
:1064B400686813F091FD03B0BDE8F04FFFF77ABDB3
:1064C4001346019AB24282D803221D4684F87920E9
:1064D400EAE7732F09D8712F0BD2212F1FD0622F17
:1064E4003CD0002F4BD1032246E0A7F17502022ACB
:1064F40045D8752F29D0762F2AD0732F2BD0722F01
:1065040047F6FF7A18BF4FF0FF3A0121484601933E
:10651400FFF7DAFD5045019B01D984F87930AA6868
:10652400424452782A2A94F879201CBF08F10108C1
:106534005FFA88F8002AB7D1212F1FBF013609F16D
:106544000109F6B25FFA89F990E74FF0FF0ADCE738
:106554004FF6FF7AD9E74FF07F0AD6E794F87B200D
:106564004A4454FA82F292F8652022445278222A4C
:10657400D5D07B2AD3D0052284F87920CFE784F8BC
:1065840079B0CCE7FFF7A0FE95E700BFA82700206D
:10659400242800204E2B04000AF40300F005040014
:1065A400BC4300200D2800202DE9F34106460D468A
:1065B4004FF000085C4C5D4F66B90DF107012846A9
:1065C40010F0D6FC78B1262800F0A980012384F8C5
:1065D40079304BE0002D00F0A28016F8013B013D1C
:1065E4008DF80730EDB23A789DF807300D2A3B70EC
:1065F40001D10A2BE0D00D2B0CD0A3F10A02514299
:10660400514122788846042AD6D8DFE802F0051DD5
:10661400263C31000121F4E721B1FFF7A3FE4FF03E
:106624000108C9E7202B63D0222B07D10223237052
:1066340094F87820642A5DD10623C8E77B2B01D126
:106644000323F4E70123F2E709B9202BF0D194F8EE
:106654007730112B3FD10323B9E7222BF7D0002940
:10666400E6D005234FF0010884F879300423237021
:10667400B8F1000FA0D094F8790008B1FFF724FE18
:10668400FFF798FC98E77D2B94F87A0003D1FF2854
:10669400DDD005239BE7602B13D8402B13D8392B6F
:1066A4008CBF002230229A1AD2B20F2A10D8FF28A7
:1066B4000BD0FF2302EB00128DF8072084F87A3008
:1066C400B6E75722EFE73722EDE784F87A2073E73D
:1066D400202BDED170E70133DBB294F8782084F804
:1066E4007730234483F8652000232370002994D154
:1066F400884661E72378012B09D19DF80730A3F17F
:10670400410119299CBF2033DBB28DF807309DF875
:106714000710A3180132597084F878204CE74046DA
:1067240002B0BDE8F08100BFA82700202528002082
:1067340049BA89B24840C0F303114140080380B20A
:106744004840C3B280EA4310704724F00BBE704740
:10675400704770477047704770477047704770477D
:106764007047704770477047002070477047704704
:10677400002070477047704700207047704770478B
:106784000020704770470120704701207047704710
:106794007047704770477047704770472DE9F0475E
:1067A4000024204DDFF89C90DFF89CA05FFA84F869
:1067B400404628F081F9FF2806460CD122461A49A2
:1067C400287802F001FB2878013410F0DBFB142C4C
:1067D400ECD1BDE8F087154B47B213EA270338BF65
:1067E400534659F824201249287802F0EDFA002F74
:1067F400E9DA14B1B8F1030F08D10E4B16F0010F0A
:106804000D49287818BF194602F0DEFA0A2CDAD1AD
:106814000A4B16F0010F0A49287818BF194602F0EE
:10682400D3FAD0E78124002081F503001D2A040057
:10683400A9F5030044F503005AF503006CF50300C1
:1068440076F50300F0F403002C6A04008842F0B5E6
:106854004FEA92031AD804460D469BB29E0087194C
:1068640004370434BC4205F104053AD1C3EB833345
:10687400314402EB8303013E304411FA83F399421D
:1068840020D011F8012B00F8012FF8E7541E204402
:1068940021440D4604469BB2A0EB8306043E043C0F
:1068A400B442A5F104050ED16FF003045C43C3EBBD
:1068B400833302EB830321449BB201342044CB1A7B
:1068C400994209D1F0BD2F792771EF78E770AF783D
:1068D400A7706F786770E2E711F8012900F8012DBD
:1068E400EEE715F804CC04F804CC15F803CC04F84E
:1068F40003CC15F802CC04F802CC15F801CC04F84A
:1069040001CCAEE70244904200D1704700F8011B6D
:10691400F9E710B5013801390AB9104606E010F854
:10692400014F11F8013F9C4201D0E01A10BD013A19
:1069340092B2F1E782B2074B4AB1000C1A8008BF49
:106944004FF6CE22044B14BF18801A8070474BF6C2
:10695400EF62F2E7E01E0020E21E0020094B1888D7
:10696400020448BF80F0620042001A80064A13887D
:10697400190444BF83F4805383F00B03590011803E
:1069840058407047E01E0020E21E00200022034B06
:106994001870034B1970034B1A7070472F2800208E
:1069A4002E280020302800202DE9F04F234E85B0FA
:1069B400337807468846002B3DD04FF6FB73204DB5
:1069C40098422C7803D952211E4800F0ADFE1E4B8C
:1069D4004FF0000B9A4632785FFA8BF94A451878E3
:1069E40011D9484402A9C0B2019330F071FE0822C3
:1069F40041460DEB0200FFF78CFF0BF1010B019BED
:106A04000028E8D14C462B78A34207D1631C327886
:106A1400DBB29A422B7004BF00232B709AF800302B
:106A240041461C44E4B2204630F0AAFF18B9394666
:106A3400204630F01BFE05B0BDE8F08F2E28002064
:106A4400302800209EF603002F280020024B1878DF
:106A540000F07F00704700BF31280020034B1878F6
:106A64000130C0B2187000F07F0070473128002058
:106A74001FB5030A8DF80E300323009303AB8DF882
:106A84000D0000F0BFF905B05DF804FB1FB58DF8EB
:106A94000F100421030A8DF80E30009103AB8DF81A
:106AA4000D0000F0AFF905B05DF804FB2DE9F043EB
:106AB400994689B0BDF840509DF844600746884621
:106AC4000DF1090011460822BDF84C40FFF7BEFE47
:106AD4008DF81250012E4FEA15258DF811908DF87E
:106AE40013508DF8146017D0032E1CD1082212996C
:106AF4000DF11500FFF7AAFE9DF850308DF81D30FA
:106B040016230093BDF8542002AB4146384600F0EA
:106B140079F909B0BDE8F0838DF81540240A8DF8A1
:106B240016400F23EDE70120F3E71FB50C46194685
:106B340002238DF80D2000930A4603AB014620463C
:106B440000F060F904B010BD70B586B00446164676
:106B54000DF10D0008221D46FFF778FE0A232A4690
:106B64000093342103AB20468DF8156000F04AF9F8
:106B740006B070BD30B5002485B0ADF80A20021D02
:106B840092B2012A1D46ADF80840ADF80610ADF8E2
:106B9400044003D94FF6FF72904207D1064A2B46B0
:106BA400127801A92EF0E0FE05B030BD014601AA1D
:106BB40020462EF09FFFF7E7E41E00202DE9F74F53
:106BC4009846FF2A16BF474B00241B680E4618BF81
:106BD4009C5C814618BF6408B8F1FF0F16BF414B97
:106BE40000271B6815461CBF13F808707F08FFF7C1
:106BF40035FF4FEA19238DF800008DF80360062154
:106C0400360A68468DF804608DF801908DF80230DC
:106C14008DF8054028F0E0FCFF28064604D118242E
:106C2400204603B0BDE8F08F4FEA440B0BF1070A8E
:106C34000AEB4701C9B228F083FC0028EFD10446CF
:106C4400A3451BD10BF106013A4601F0FE01304683
:106C54005FFA8AF428F03BFD4FF0000A5FFA8AF5E8
:106C6400AF4223D83346BDF8302006214846FFF70B
:106C740081FF0446304628F051FBD1E721462846DF
:106C840028F020FDA11D0246C9B2304628F01FFDA0
:106C9400611CC9B2284628F015FDE11D0246C9B29F
:106CA4003046023428F013FDE4B2C9E76D00EDB2BA
:106CB4002946404628F006FD21460246304628F083
:106CC40006FD691CC9B2404628F0FCFC611C024662
:106CD400C9B23046023428F0FAFC0AF1010AE4B2DF
:106CE400BCE700BF7C1E00202DE9F04188B00F46B0
:106CF40002A9064611F0A4FD00287CD0FFF7AEFEE1
:106D04008DF8100028F084F88DF8110028F080F830
:106D1400000A8DF81200082239490DF11300FFF71B
:106D240095FDBDF808300F218DF81C301B0A8DF835
:106D34001D309DF80D3004A88DF81B608DF81E30B1
:106D440028F04AFCFF28044657D04FF000089DF86D
:106D54000D305FFA88F2934208F101081DD8012230
:106D64000DF10E01204628F079FC4FF000089DF843
:106D74000E305FFA88F2934208F1010824D82346C2
:106D84003A4620210020FFF7F5FE0546204628F06C
:106D9400C5FA284608B0BDE8F0810021304611F05C
:106DA4007BFD05468DF807000DF107010122204601
:106DB40028F054FC2D0A01220DF1070120468DF81C
:106DC400075028F04BFCC2E70121304611F064FD66
:106DD40005468DF807000DF107010122204628F031
:106DE4003DFC2D0A01220DF1070120468DF80750C4
:106DF40028F034FCBBE7A325CBE71825C9E700BF7F
:106E04001D560020F8B51C460E4617460546FFF7EA
:106E140025FE9DF818102070204628F0DDFBFF2881
:106E240004460BD003463A4628463146FFF7A2FEF5
:106E34000546204628F072FA2846F8BD1825FBE7D7
:106E440008B5FDF739FD15F03BF9BDE808400DF034
:106E5400CDBB08B5FFF744F815F062F9BDE808406A
:106E64000CF0FEB87047FFF784B8FFF788B82DE937
:106E7400F743BDF82840BDF82C500646CDE900453F
:106E84000F469046994605F061FD60B9CDE900458D
:106E94004B464246394630460BF072FC00F0010086
:106EA40003B0BDE8F0830120F8E738B504460D4689
:106EB400FFF77EF8294620460DF09AFB2946204626
:106EC400BDE8384010F0DEBCFFF75BB8FFF765B8EB
:106ED40001220021092015F0E5BD002307B5CDE905
:106EE4000033012369464FF0FF308DF802301AF069
:106EF4008FF8003018BF012003B05DF804FB0120B7
:106F040070470120704701207047000010B5084CFD
:106F140023681B68587912F060FA23681B68587953
:106F2400FEF7E4FF002015F085FA012010BD00BF34
:106F3400105400202DE9F84F80460D46144699461A
:106F4400164E06F1010A0DB9BDE8F88F102D4FF069
:106F54000D02494650462F4628BF1027FFF776FCFE
:106F64000123337000230D48F473B37330F0A0FD94
:106F7400424601340A495FFA87FBE4B212F8013B46
:106F840011F8010F434002F8013CA2EB0803DBB205
:106F94005B45F3D3ED1BADB29046D4E73628002011
:106FA400352800202DE9F04F4FF00209364D85B009
:106FB40003930F9B174601900D220E460146681C51
:106FC400BDF838800293FFF741FC49234C46AA469A
:106FD4002B7028464FEA1823AB7385F80F8030F0E6
:106FE40067FD2B7883EA17232B706B787B406B70DB
:106FF4004FF0000B21E0C4F1100CA7EB0B031FFAB8
:107004008CFC9BB2634528BF63463046A11B00EB52
:10701400010C5FFA8CF2A0EB060C1FFA8CFC9C4569
:107024001BD31C44E4B29B44102C1E441FFA8BFB5C
:1070340003D1284630F03CFD0024BB45DBD314B11A
:10704400504630F035FDB9F1010F4FF00004039EB6
:1070540047460BD04FF00109CAE710F801CB1AF8E4
:1070640002E08CEA0E0C0AF802C0D0E7029804226F
:107074000549FFF7EBFB22460421019B029805B06A
:10708400BDE8F04FFFF756BF36280020F7B5099F3B
:10709400BDF820400646CDE900471D46FFF782FFB4
:1070A4002CB13346012221462846FFF743FF002036
:1070B40003B0F0BD2DE9F7431E46054688469146C8
:1070C400BDF828700D4C0346394630460122FFF7BF
:1070D40031FF33464A4641462846CDE90074FFF75E
:1070E40061FF042221460B98FFF713FC002814BF0C
:1070F4007E20002003B0BDE8F08300BF32280020CA
:107104002DE9F3410C4615461E468046084F991852
:10711400214438460422FFF799FBCDE9006763193F
:107124002A4621464046FFF7C5FF02B0BDE8F0817C
:1071340046280020002070470020704770477047A1
:10714400F7B50024094E0A4F0A4D56F8243003B906
:107154003B6835F814200849009201202246013486
:1071640013F00CFF292CF0D103B0F0BDE81E002071
:10717400901F0020644400206D12040008B5FFF73E
:10718400DFFFBDE8084000F0EFB8000007B50020BD
:10719400FEF7EEFFC2B2282A0DD8084B53F822306E
:1071A4000BB9074B1B680749012031F812100091F5
:1071B400054913F0E3FE03B05DF804FBE81E00206C
:1071C400901F0020644400206D120400FFF7B8BF34
:1071D4007047000038B50020FEF7CAFF04460120BE
:1071E400FEF7C6FF05460549012013F0C7FEA9B204
:1071F400E0B2BDE8384000F0CFB800BF7812040018
:10720400F7B50024094E0A4F0A4D56F8243003B945
:107214003B6835F8142008490092012022460134C5
:1072240013F0ACFE292CF0D103B0F0BDE81E002011
:10723400901F0020124400206D12040073B502ABAD
:1072440003E906000446019D27F026FB0646204676
:1072540027F030FB9DF800008EB1202C0FD82B783E
:10726400012B36D84FF6FF75384903EB43132344FB
:1072740031F81320AA4202D0013221F813204FF62C
:10728400FF71334B334A33F8145032F814608D4293
:107294001CBF691C23F8141004F0FD01092930D126
:1072A400998A928A0144914235DA998233F81430EA
:1072B400B34204D3B54202D22046FEF718FE00259D
:1072C400254BEA5CA24228D00135112DF9D102B038
:1072D40070BD022BD3D14FF6FF714FF6FF751B4BD8
:1072E40033F814208A421CBF013223F8142004F11D
:1072F400210133F81120AA421CBF013223F81120C6
:10730400BDE71D2CD2D1598F0144508F814201DA3F
:107314005987CBE7928A9A82C8E723F0CAFA0F4BBF
:1073240004461B78834203D8E0210D4800F0FCF9A1
:107334004FF6FF710B4A04EB04142C4432F814305A
:107344008B42C4D0013322F81430C0E7B644002085
:107354006444002012440020E6150400C51E0020E9
:1073640060150400F0430020522200210148FFF779
:10737400C9BA00BF644400205222FF210148FFF72C
:10738400C1BA00BF1244002008B5FFF7EDFFBDE805
:107394000840FFF7F1BF0000014B23F810107047BD
:1073A40012440020032310B50F4C1022C4E9043307
:1073B4000E4B0F49E3610023A16121660D49E01DD5
:1073C400C4E919120C49A3626362E3622367E366AA
:1073D4006367226237F030FE0849204637F02CFEFE
:1073E4002023A37110BD00BF004800205A280020AC
:1073F400F71504004A2800200016040004160400AF
:107404002DE9F84F1F4B16461A7881468A4698464E
:107414000AB9FFF7C7FF182707FB09873D6FD7F89D
:107424006CB05D452BD9BC6E796E641BB44228BF29
:10743400344629445046224637F033FDBB6E25447A
:10744400AB4208BF0025A244361BABEB050B5E45DF
:1074540028BF5E4656B1182303FB0983596E324692
:107464002944504637F01DFD3444354424B11823D3
:1074740003FB0988C8F870502046BDE8F88F002443
:10748400E3E700BF00480020F8B504460E4617465F
:1074940003F057FE3A46054631462046FFF7B0FF53
:1074A4000446284603F053FE2046F8BD2DE9F84370
:1074B400124D1E462B788146884617460BB9FFF7B6
:1074C40071FF03F03EFE00244FF0180C69690CFBB9
:1074D40004535A6E2AB10134A142F8DC4FF0FF3450
:1074E40007E0A142FADDC3E918989F661A67DA66D5
:1074F4005E6703F02CFE2046BDE8F88300480020B8
:10750400FFF750BF70B54FF060441A4B00261A685D
:10751400194D42F001021A60DA680C2042F08072C0
:10752400DA60164BC4F8B03F0223C4F8006EC4F806
:10753400806EC5F8F03003F015FB114B00F5D52033
:1075440000F2FC40B0FBF3F00E4A0F4B0138286107
:10755400C4F8406E1A600D4BC4F8803E4FF480733B
:10756400C5F80433D4F8003E43F48073C4F8003EF5
:1075740070BD00BFF0ED00E0000004E055CEACC5E6
:10758400F8590D00FF030040001000E00D00010059
:1075940010B501240E4B00201C6003F06FFE23463F
:1075A40004220321002003F0B1FE204619F0E0F983
:1075B400FFF7A8FF19F0DDF9FFF7A2FF23464022E9
:1075C40004490548FFF772FF044B1860C00F10BD53
:1075D40044D403406A2800200B160400941F0020A2
:1075E400024B1868003018BF01207047F0ED00E02E
:1075F400D123054A037013784170090A8170591C1C
:10760400C370117004207047AA2800202DE9F74F99
:10761400354E074633681C5C032C63D9DFF8CC80F5
:1076240022F079FD4FF6FF7A0025C1460534E4B215
:107634000190D8F800204AB1AC4207D922F06BFD82
:10764400019BC01A80B2B0F5FA7F05D9601B18BF40
:10765400012003B0BDE8F08F002D3DD0012D1DD1D8
:107664004FF0020B3268D55D4FF06042D2F8801EB5
:10767400CB0711D51146D9F80C0040F08070C9F839
:107684000C00D1F8000E40F48070C1F8000E086AB6
:107694000028F0D082F820505D46CAE7E21E05F1CA
:1076A400010B95425FFA8BFB02D15FFA8AF5DBE7A7
:1076B400A21E954202D1CAF30725D5E7621E954260
:1076C4000ED0A91EC9B2384627F0FCFF5146054624
:1076D400FFF72EF88246C7E75B254FF0010BC3E79F
:1076E4005D25C1E70120B4E77C1E0020F0ED00E039
:1076F40010B50B4B90B0402269461868FFF7C4FEE2
:1077040058B1C1B2684627F067FF0446014612200B
:1077140017F016FB204627F001FE10B010BD00BF85
:10772400941F002042DE704738B504460D4600F031
:10773400F9FD03F0FEFC2946204617F0CDFA2B464E
:107744002246054901200FF023FC29462046BDE8C6
:107754003840FFF7E7BF00BF1B1604006D4B2DE94F
:10776400F0415A686C4CA2655A6AE2656B4AD2F8D9
:1077740000122166D2F8042262669A6AA266DA6A64
:10778400E2661A6B22675A6B6267A26BDB6B12F0BC
:10779400040FA367D4E90F5318BF1D4622F0AAFCB7
:1077A400002285420346606522655DD35C4A9542AA
:1077B4005AD8AA696264E969A164B4F85810C1F39B
:1077C4000801062954D157498A4251D356498A425D
:1077D4004ED211884DF64262914249D140F2017075
:1077E4006268C4F89420A268C4F898204F4A5049AB
:1077F400934238BF13460A468B423CD3D31AE36400
:107804000023C4E91F33C4E92133C4E92333484EB8
:10781400444FDFF814C1AE4233D8D4E91FC7D4E9CA
:107824002165D4E923124FF0000E013BDBB2FF2B9C
:1078340042D1BEF1000F05D0C4E91FC7C4E92165D8
:10784400C4E92312B4F85830C3F30803052B57D006
:107854003CD8032B47D0042B58D040F60722013BD9
:107864004B2B98BF104640E000221D46C4E911226C
:107874004FF42060BAE71E68B6F1CD3FBED10433A1
:10788400BAE756F8042DBA42C5D36245C3D2D1072C
:10789400C1D5002104EB010EDEF87CE09645BAD098
:1078A40004311829F6D10BB9052301E0013BDBB201
:1078B40004EB8301CA67AEE7E0464FF0010EBC4615
:1078C40037462E460D4611464246AEE70C2B1AD0DB
:1078D4003B2B0CD0062BC0D140F60423B0F5206F0F
:1078E40008BF184601E040F60120BDE8F081114BC5
:1078F4009B6913F0020F40F2025318BF1846F4E7D5
:1079040040F60320F1E740F60520EEE740F60220BA
:10791400EBE700BF00ED00E00000002000E100E024
:10792400401C00204C43000090F003009C00002009
:10793400601C00200080014A022804D003280CBFE8
:107944000120022070470020704700004FF480732C
:107954002DE9F04385B0ADF80C30002401F0E2FCD1
:107964000127DFF84480DFF8449003ABE35C012295
:1079740018F8336008EBC3035D68304600232946DA
:1079840003F0C4FC4946E8B201F0DAFCCDE9007723
:1079940001232A462946304603F072FC14B105B08F
:1079A400BDE8F0830124E0E730160400357A0000D6
:1079B40008B5FFF7C1FF022816BF024B0020185C70
:1079C40008BD00BFAB28002008B5FFF7B5FF0228AB
:1079D4001CBF014B195408BDAB28002008B5FFF7A4
:1079E400ABFF022805D0034A135CB3FA83F35B09A7
:1079F400135408BDAB28002008B5FFF79DFF0228EB
:107A04000FD03021084A12F8303002EBC00259433B
:107A1400064B50685B5823FA00F0C04300F00100A5
:107A240008BD0020FCE700BF3016040014C003406A
:107A340070B504460026FFF7DFFF054601E0002687
:107A44001D462046FFF7D8FFA8420346F7D101366A
:107A5400052EF2D12046FFF7ABFFA8420BD02946F2
:107A64002046FFF7B1FF2046FFF7A2FF014620465C
:107A740010F06AFD70BD2046FFF7B0FF2046FFF707
:107A840097FF0146204610F05FFD2046FFF7A6FF52
:107A9400E9E7000010B503F06BFD044603F060FD58
:107AA4000022012101FA02F3234014D01B4B33F8C6
:107AB40012301B4A062B13D040F207218B420DD102
:107AC400184919480C68844208D14CF23C334B8065
:107AD4000B88138012E00132102AE3D1104AF8E730
:107AE4004FF20F010F4B5888884214D11988B1F511
:107AF400406F10D211804CF23C325A80084B1A88E5
:107B040040F201739A4201BF084B094AD2E90001CD
:107B1400C3E9000110BD4FF4C061EBE74016040057
:107B2400B82800200000002007020FF0B028002031
:107B340094000020014B1888000A7047B8280020E0
:107B4400014B1888704700BFB82800202DE9F04F7A
:107B54004D4C0546A36BD4F850B05A0747BF0027D5
:107B6400B846D4F84CB0D4F85480D4F840A05DBFE3
:107B7400464FD4F83CA0DFF83C91DFF83C9113F079
:107B8400080F434B434A18BF1A46B7EB08061FBFFA
:107B94006421730801FB0B33B3FBF6F387B01CBFFE
:107BA4009BB205933C494B46CDE9017ACDF8008060
:107BB40008BF059601F008F9B3B2CDE900931FFAA6
:107BC4008BF2059B3549284601F0FEF8A36B5B0751
:107BD4000AD49C3E5E4507D1626D314B9A4203D272
:107BE4003049284601F0F0F8BA4501D8C24504D21C
:107BF4004A462D49284601F0E7F828460FF0C2F915
:107C0400236E0BB9636EBBB32849284601F0C7F84D
:107C140000260127DFF8A480DFF8A490226E07FA7B
:107C240006F3134207D058F8262013781BB14946AF
:107C3400284601F0B4F80136202EEFD100260127A2
:107C4400DFF87880DFF87890626E07FA06F3134263
:107C540009D008EB8603D3F8802013781BB149467A
:107C6400284601F09CF801361D2EEDD1284607B0B8
:107C7400BDE8F04F01F0A2B828460D4907B0BDE8B1
:107C8400F04F01F0A1B800BF00000020601C0020EC
:107C9400471904004E1904005619040084190400FD
:107CA4009C000020BD190400E9190400071A04000F
:107CB400361A0400421904009B5204004C1A0400B2
:107CC400AC6904002DE9F8430446FFF739FF40F698
:107CD4000123984239D010D840F2025398421DD063
:107CE40040F20173984224D040F20153984213D1D8
:107CF4006549204601F068F822E040F603239842E3
:107D04006CD03DD340F60423984200F09C8040F6AA
:107D14000523984200F0B580BDE8F8835B4920460E
:107D240001F052F85A4B5B495A6C204601F04CF86A
:107D340006E0574A5849D2E92523204601F044F881
:107D44002046BDE8F8430FF01DB9514D5349204674
:107D540001F03AF895F86C309F0703D55049204656
:107D640001F032F895F86F305E0603D54D49204690
:107D740001F02AF895F96F30002BE1DA4A49B8E7A7
:107D8400434D4A49204601F01FF895F8683098079A
:107D940004D06A6C3F49204601F016F895F9683022
:107DA400002B04DA6A6F4249204601F00DF80026E0
:107DB4000127DFF80881DFF81491AA6E07FA06F3A9
:107DC400134207D058F8262013781BB149462046A1
:107DD40000F0FAFF0136082EEFD1B1E72C4D3549FA
:107DE400204600F0F1FF2B496A6C204600F0ECFFBE
:107DF40095F86930590703D52F49204600F0E4FF70
:107E040095F96930002B04DA6A6F2949204600F09D
:107E1400DBFF0826294FDFF8B480AB6EF340DA07A6
:107E240007D557F8262013781BB14146204600F0A9
:107E3400CBFF0136102EF0D195F86830002B7FF47B
:107E44007FAF1F4955E7124D1E49204600F0BCFF85
:107E54006A6C1049204600F0B7FF1026174FDFF870
:107E64006C80AB6EF340DB0707D557F826201378F8
:107E74001BB14146204600F0A7FF01361A2EF0D16F
:107E84005EE711494BE700BFD11604000E1704004A
:107E9400000000203E170400571704007117040067
:107EA40089170400C3170400F617040032180400ED
:107EB400571804007B18040092180400601604008C
:107EC400D8180400081904002119040073180400C8
:107ED4002DE9F84F06460025154C164FDFF85C8057
:107EE400DFF85CA023785FFA85FB0BB9BDE8F88F57
:107EF40057F8043B22461049304600F050FF2278E0
:107F040004F1010982B9627882B10BF003010329FB
:107F14000CBF41465146304600F041FF30460FF059
:107F240031F801354C46DDE74C46E8E74146F2E7D7
:107F3400401B040004000020C81604000AF40300D7
:107F4400E557040000F00CB800F00AB800F008B8D7
:107F540000F006B800F004B800F002B800F000B871
:107F640072B61EF0080F09D01EF0040F0DD0DFF812
:107F740050E0AEE8FF1F6FF002000CE0DFF840E0D5
:107F8400AEE8FF1F6FF00E0005E0DFF834E0AEE866
:107F9400FF1F6FF006006946EFF309828EE80700C1
:107FA40086460848084C854501D3A54501D384F38A
:107FB4000888FFF7D3FB84F3088822F077F80000E1
:107FC4000400002040130020601C0020FFF7C6BFFF
:107FD400002310B519460422012003F097F9BDE8E7
:107FE4001040012100230422084603F08FB9000049
:107FF400084A12F8301002EBC002536801229A407A
:1080040030234B4341F2100103F1804303F57033F5
:108014005A50704754220400084A12F8301002EBF8
:10802400C002536801229A4030234B4342F21001AC
:1080340003F1804303F570335A507047542204000F
:10804400084A12F8301002EBC002536801229A4029
:1080540030234B4343F2100103F1804303F57033A3
:108064005A507047542204007047000000F07E63A9
:10807400B3F17E6F70B505460E46144616D10BF06B
:1080840073FF18B19A210D48FFF74EFB2246314683
:10809400C5F30B0003F028FB04460BF071FF5CB141
:1080A4009D21BDE870400548FFF73EBB520821F012
:1080B4009BFF08B18F21F4E770BD00BF7422040058
:1080C40037B57F2A14BF154600254BF2346291421E
:1080D400044619D17F2241F2020168460823FFF7C2
:1080E400EFFF082225496846FEF713FC30B9082340
:1080F4007F2241F2F0116846FFF7E2FF0822694649
:108104002046FEF7A3FB09E041F2F01291421AD196
:108114001B4901388A6CC96C1D1F0BB903B030BDF3
:10812400013B9D4200F8012F4FEA1222F5D10022B3
:1081340003349A42F2D00132042A04F8011F4FEAB0
:108144001121F6D1EAE701F47042B2F5805F07D15C
:10815400C1F30B0404F17E649AB203FB0541D0E73A
:1081640001F46042B2F5005FD8D1C1F30B040549B4
:108174009AB2214403FB0511C3E700BFF0220400B7
:108184000080E00F00E00F0070B5054616461C465F
:10819400DBB14BF23463994210D1082C28BF082478
:1081A4007F2241F202012346FFF78AFFA2B2074968
:1081B4002846FEF7AEFB40B941F2F01123463246A1
:1081C4002846BDE87040FFF77BBF70BDF022040075
:1081D4002DE9F7430446E0070F46154603D5DD2194
:1081E4003448FFF7A1FAE90703D5DE213148FFF748
:1081F4009BFA04F47043B3F5805F3ED1C4F30B04DF
:1082040004F17E646B1E2C4A23449342264603D910
:10821400E3212848FFF788FADFF8989006EB050871
:1082240046453DD1A2070ED04FF6FF7337F8022B17
:1082340002A943EA0243A01E41F8043D0422FFF7C9
:1082440015FF0234023DAB070ED0023D25F00103B9
:10825400FB5A02A96FEA03436FEA1343042241F86D
:10826400043D6019FFF702FF25B12A46394620462E
:10827400FFF7FCFE03B0BDE8F08304F46043B3F5FC
:10828400005F05D10D4BC4F30B041C442646C3E721
:10829400EA210848FFF748FA6FF00F060024BBE70D
:1082A40016F8013BFF2BBBD0F4214846FFF73CFAFC
:1082B400B6E700BF74220400FF1FE00F00E00F00C8
:1082C400FFF740BE1FB5144A01AB1068516812890C
:1082D40003C31A8001238DF804300D238DF80A306E
:1082E40003230E4C082123208DF80B3002F078FD77
:1082F40001A9204603F02FFC4FF40061022342F24F
:108304001800074AC2F884112350516041F21C023C
:10831400A35004B010BD00BFF82204000080014A3D
:1083240000E100E0014803F005BC00BF0080014A01
:10833400A52803D10021024803F0EDBB704700BF1C
:108344000080014A024B586800F00100704700BFEA
:108354000080014A024A536A002BFCD1704700BFD7
:108364000080014A002070470020704770470000D9
:1083740007B572B602F0DDFE894B8A495B6940227B
:108384008B6000230B764B768B76F023CB760B77C2
:108394004B778B77CA77802281F8202081F82130AF
:1083A400E023602081F822307F4B81F8232083F87A
:1083B400002383F8012383F8022383F8032383F83B
:1083C400042383F8052383F8062383F8072383F81B
:1083D400082383F8092383F80A2383F80B2383F8FB
:1083E4000C2383F80D2383F80E2383F80F2383F8DB
:1083F400102383F8112383F8122383F8132383F8BB
:10840400142383F8152383F8162383F8172383F89A
:10841400182383F8192383F81A2383F81B2383F87A
:108424001C2383F81D2383F81E2383F81F2383F85A
:10843400202383F82103202083F8222383F8232395
:1084440083F8242383F8252383F8262383F827231A
:1084540083F8282383F8292383F82A2383F82B031A
:1084640083F82C0383F82D2383F82E2383F82F23FA
:1084740083F8302383F8312383F8322383F83323BA
:1084840083F8342383F8352383F8362383F837239A
:1084940083F8382383F8392383F83A2383F83B237A
:1084A40083F83C23CB6823F4E0631B041B0C43F0E8
:1084B400BF6343F40133CB604B6943F010034B615A
:1084C4004FF4E0234B620AF077FDFFF7E3FAEFF392
:1084D40008834FF0CD31354A043B93425DD2344A90
:1084E400002192B23348FEF70DFA62B6684603F0F3
:1084F40023F9314B9B6DDB0318D4304A136823F402
:10850400FF0323F4FE4343F4BC1343F4A06313605A
:1085140052F8043C23F4704343F4404342F8043CCF
:1085240052F8043C43F4E06342F8043C9DF8013003
:10853400012B0FD19DF8003063B94FF000531B6835
:108544001F4B1B681F4B1B681F4B1B681F4B1B6873
:108554001F4B1B681F4AD2F8803043F00303C2F854
:10856400803002224FF040231A670AF099FC01F090
:108574005DFA002300938DF80430012368468DF8DA
:10858400033002F072FE00F027F921F0D1FD124809
:1085940018F0F8F903B05DF804FB1960043B9CE79C
:1085A4000040000000ED00E000E100E000130020C6
:1085B40034120000A000002000C0004034C000407D
:1085C400004000200080002000C0002000000120A6
:1085D4000040012000800040B875040040F20160B2
:1085E40021F064BDFEF7AABD08B500210B20FEF7FB
:1085F400A3FDBDE80840FEF7A2BD032000F078BA51
:1086040008B5FFF797FA044B0B289ABF00B203EBA7
:108614008000184608BD00BF4A24040008B5FFF7CF
:108624008FFA044BC0F30F2253F82230C0B203EB8D
:10863400800008BD1424040010B5FFF77BFA04463B
:10864400FFF77EFAC0B228B9012C24D164F07F046C
:10865400E4B216E0072CF9D801A353F824F000BFC4
:108664008786000051860000858600008B86000006
:108674008B8600008F86000093860000978600009A
:108684000924204610BD0224FBE70324F9E70B2448
:10869400F7E70624F5E70446F3E700BF07282DE9CA
:1086A400F84F04460F462DD0082808BF022421465F
:1086B4000120FDF77EFCFFF745FE651ED5F100089D
:1086C40048EB050800B3012C1ED1A520FFF730FEAE
:1086D4002646EFF31089012383F31088EFF3118A00
:1086E4004FF0000B8BF31188354D40460EF0B8FE69
:1086F400631EC5F800B0042B59D8DFE803F00E4D13
:108704004D5155000324D2E7FFF71CFE18B1FFF7C3
:1087140021FE0026DDE70646DBE72A4A136923F03B
:108724000403136130BF284AD2F82434D2F8202439
:1087340013409BB2254A2B60D2F80011480102D5A0
:108744001168490106D4D2F80011880105D51268D0
:10875400910102D543F480332B601C4BD3F80021E4
:10876400520506D51B685B0542BF2B6843F40033F2
:108774002B601EB10121164803F0CDF940460EF0DE
:108784008FFECFB18AF3118889F310882146BDE8A2
:10879400F84F0020FDF70DBC012002F039FDC2E7BF
:1087A400012002F049FDBEE702F048FDBBE7882145
:1087B4000848FEF7B9FFB6E787F31088E6E700BF7D
:1087C400C428002000ED00E000C0034000E100E008
:1087D4000080014A7A24040042F22041044AD2F87B
:1087E40020341B0C1B045350024A1360704700BF13
:1087F40000C00340C02800200021FFF74FBFFFF74F
:10880400FBBF00002DE9F04F89B018F0AFF8074620
:10881400002840F0DD806F4E6F4D316828681FF0EE
:10882400EDF80446002827D033683C46D3E900011C
:108834009A6912689047336804A89B699B689847B3
:10884400336802209B69DB6898473268059853684F
:10885400E7B2B3FBF0F3BB42916904F1010442D8DF
:10886400CB680020984733689B695B6898473168F8
:1088740028681FF0C3F804460026DFF88891002C0E
:1088840053D1564B4FEA8608F35C002B31D1A246F4
:10889400534BF35C0193534B03EB080B019B5FFABF
:1088A4008AF7BB42286853D84F4BF35C002B3CD06B
:1088B4004C4B019F9844FBB27E2B286835D8D8F8DE
:1088C400003003AA07EB030A514602AB1FF0D0FAAB
:1088D40048452AD0514628681FF020FB013704463A
:1088E4000028E8D021E012680B6907FB00209847B4
:1088F400ABE73C4B03AA53F82670286802AB394611
:108904001FF0B6FA484507D078B9039B012B0CD069
:10891400394628681FF002FB344B394653F80830B7
:1089240028681A681FF0CEF9044601362E2EA6D107
:10893400B4FA84F32E4A5B0913702E4B9C4241D047
:108944002DD8002C32D0013B9C423FD0C5242DE0D1
:10895400DBF8003003AA1F44394602AB1FF088FA43
:1089640048450AD010B10AF1010A97E7039B8BB975
:10897400214B029AF35C9A42F5D01F4B1B4A9B5D34
:1089840052F80820394628681FF00EF90028EAD06A
:10899400044689E7394628681FF0C0FAEDE7174B0B
:1089A4009C4211D004339C42D0D1C1242B681B7C3F
:1089B40023B14FF489711248FEF7B6FE204609B080
:1089C400BDE8F08FC324F1E7C424EFE7C224EDE748
:1089D400C624F3E7A02200209C220020BCFA030056
:1089E400D5F9030018FB0300EAFA030004FA0300B4
:1089F400C828002002E000F0D0FB030004E000F0EF
:108A0400F82404000BE000F02D2970B506460C464E
:108A140015461AD8144A127822B3144A1068144A14
:108A240052F82110134A125D3AB132461FF098F9F8
:108A3400C0B1BDE87040FDF78ABE7F2D08BF002598
:108A4400324629441FF0FAF8F2E7FF2903D9BDE8BA
:108A54007040FFF799BB40F24511BDE870400648ED
:108A6400FEF762BE70BD00BFC82800209C22002013
:108A740018FB0300BCFA0300F82404002D28F8B501
:108A840004460D46164619D81449097829B31449E1
:108A9400144F0868144951F824103C5D3CB1126825
:108AA4001FF010F9C8B1BDE8F840FDF750BE7F2DA6
:108AB40008BF002529441FF077F8F3E7FF2805D9FC
:108AC4001A463146BDE8F840FFF782BB4FF4BC714B
:108AD400BDE8F8400548FEF727BEF8BDC8280020C9
:108AE4009C220020BCFA030018FB0300F8240400B5
:108AF40008B5084B1B7863B1074B002253F82010CC
:108B0400064B18681FF06CF918B1BDE80840FDF772
:108B14001EBE08BDC828002018FB03009C220020AC
:108B240070B5164685180AB9304470BD01F00F03BC
:108B34000A2B34BF30243724013A2344090905F8A9
:108B4400013DD2B2EFE70000F0B5F9B100281CDA1C
:108B54002D23B0F1004F137000D04042012115E0E5
:108B6400801B8642ECB205F10105F9D904B927B19D
:108B740001274D1C30345454E9B20133092B09D177
:108B8400303050540131C8B2F0BD002100231F46DB
:108B9400DFF808C05CF823600025E2E770250400D4
:108BA4002DE9F04F4FF0000B95B002AC81468A4698
:108BB40017461D465E46A0463B7863B902ABE41AED
:108BC400E4B2224619465046C847002840F0938034
:108BD4003444E0B290E0252B13D0BBF1000F14D144
:108BE4002370013412AB9C426DD3A4EB0804E4B2AD
:108BF400224641465046C84700287CD12644F6B256
:108C040060E0BBF1000F00D101373B78632B00F02B
:108C140092801BD8392B09D8302B80F09E80002BF2
:108C2400CCD0252B51D04FF0000BDBE7582B00F0B4
:108C34008B80622BF7D14FF0000B2B6801936B688C
:108C44000093009B9B4543D10835ECE7702B1ED065
:108C540017D8642B01D06C2BE5D16C2B05F1040BD8
:108C640028686CD17B78752B14BF0121002101D0B9
:108C7400642B00D101372246FFF766FF04445D46AA
:108C8400D1E7752BE9D0782B5ED0732BCBD1A4EB35
:108C94000804E4B2224602A9504605F1040B2D68EB
:108CA400C84740BB2644F6B2C4B22B5D0130002B4A
:108CB400FAD1224629465046C847E0B95D46834664
:108CC4002644F6B24446013776E723700134AAE716
:108CD400019B204613F80B100222FFF721FF12AB71
:108CE400984204460ED3A0EB0804E4B2224641465F
:108CF4005046C84718B1002015B0BDE8F08F26448F
:108D04004446F6B2009B013B5B4582BF202323709F
:108D1400013412AB9C420BD3A4EB0804E4B2224608
:108D240041465046C8470028E5D126444446F6B299
:108D34000BF1010B85E72B6804352370C6E7752B0F
:108D44000CBF0021012196E7204602222978FFF773
:108D5400E7FE05F1040B044691E77A7802F0DF029E
:108D6400582A19D1322B07F1010B09D104222046CC
:108D740029882F1DFFF7D4FE3D4604465F4652E77F
:108D8400342B09D12F1D2D680422290C2046FFF70E
:108D9400C7FE0422A9B2EDE74FF0010B22E70EB49F
:108DA40003B503AA52F8041B01920EF00FFCC0B2E3
:108DB40002B05DF804EB03B0704700000149FFF70F
:108DC400EEBF00BF0AF403000EB433B505AA52F88F
:108DD400041B054601920EF0F9FB04462846FFF7F2
:108DE400EDFFE0B202B0BDE8304003B0704708B513
:108DF4000EF0ECFBC0B208BD2DE9F04F9B46584B7A
:108E040085B01B78064689461546109F9DF844A0F8
:108E1400DDF85080002B00F09280072A00F2918048
:108E24000E9B002B00F08D800F9B002B00F089809F
:108E3400129BB3F5006F00F38480012801D1002F49
:108E44007FD0484B03EB05131B7B002B7BD0464C98
:108E540010220021684636F02FF804EB4514102246
:108E6400B9F1000F5CD14946204636F025F8A378C5
:108E740043F01003A370E37843F03003E370BAF1D6
:108E8400000F03D1DBB243F00303E37036496A01F8
:108E9400129B885A013B63F30E100E9B01EB020CEC
:108EA4008852CCF808300F9B9DF84C10CCF8043055
:108EB4009CF80330012E61F38303CDF800B08CF8E5
:108EC400033042D113230CF1100ECCF80C309CE883
:108ED4000F008EE80F006FF00301DCF81C20B9F1DD
:108EE400010F61F39F02CCF81C20CCF8147004D15C
:108EF4000F9BCCF80470CCF81830002719492A01CC
:108F04008B1841F80280159A28465A609F605E7358
:108F14002246694602F08AFA384605B0BDE8F08F69
:108F24000021204635F0C8FF1023A3700323E3700B
:108F3400BAF1000FAAD1DBB243F03003A5E70B4826
:108F4400EBE70B48E9E70B48E7E7B8F1000FD4D1AA
:108F54009CF8023068F304138CF80230CDE700BFAC
:108F64004C2A0020CC2800204C290020028000F04C
:108F7400018000F0078000F038B5104B05461B78DF
:108F8400BBB1C0B102F0DDF800230D4901EB0312BF
:108F9400147B3CB92B6001231460137302F0D7F8DF
:108FA400204638BD0133082BF0D102F0D0F8054833
:108FB400F7E70548F5E70548F3E700BF4C2A00202A
:108FC400CC280020048000F0028000F0018000F032
:108FD40038B502F0B6F8002305460A4AD1180C7BCE
:108FE4005CB91033802BF9D102F0D2F9064B284634
:108FF4001C7002F0ACF8204638BD284602F0A7F8F1
:109004000248F9E7CC2800204C2A0020058000F013
:109014000D4B10B51B78044693B1072812D802F003
:1090240090F80A4B03EB04131A7B2AB100241C7337
:1090340002F08DF8204610BD02F089F80448FAE7E2
:109044000448F8E70448F6E74C2A0020CC2800201E
:10905400068000F0028000F0018000F0164B13B58A
:109064001868002301908DF8043002F06AF8134B5D
:109074001C7824B102F06BF8114802B010BD012233
:109084001A7002F064F80F4B1C731C7783F82C40A1
:1090940083F83C4083F84C4083F85C4083F86C4090
:1090A40083F87C4004230DEB03008DF8073002F0B5
:1090B40093F92046E1E700BF942504004C2A0020E0
:1090C400038000F0CC28002010B588B00E9C0092DC
:1090D40007940D9C024606949DF8304005940B9C21
:1090E40004949DF8284003940024CDE901342046DB
:1090F4000B462146FFF780FE08B010BD10B588B0BE
:109104000E9C009207940D9C024606949DF83040F4
:1091140005940B9C04949DF8284003940024CDE905
:10912400013420460B460121FFF766FE08B010BD4E
:1091340008B50A4B1B785BB107280BD8084B03EB27
:1091440000131B7B43B1002102F036F9002008BD57
:109154000448FCE70448FAE70448F8E74C2A0020EE
:10916400CC280020028000F0018000F0078000F08D
:1091740008B50A4B1B785BB107280BD8084B03EBE7
:1091840000131B7B43B1012102F016F9002008BD36
:109194000448FCE70448FAE70448F8E74C2A0020AE
:1091A400CC280020028000F0018000F0078000F04D
:1091B40008B50A4B1B7853B107280AD8084B03EBB0
:1091C40000131B7B3BB102F081F9002008BD054868
:1091D400FCE70548FAE70548F8E700BF4C2A0020F9
:1091E400CC280020028000F0018000F0078000F00D
:1091F4000D4B1B7893B1072812D889B10B4B03EBA5
:1092040000131B7B73B10A4BDA6A012303FA00F0E3
:1092140010401ABF00200B70087070470548704753
:1092240005487047054870474C2A0020CC28002088
:1092340000000440028000F0018000F0078000F08C
:109244000B4B10B51B780C4663B107280CD859B1E9
:10925400084B03EB00131B7B43B102F049F9206078
:10926400002010BD0448FCE70448FAE70448F8E786
:109274004C2A0020CC280020028000F0018000F05D
:10928400078000F02DE9F843174B1F6D5B6D1F40FD
:1092940000D5FEE701260025144CDFF85480DFF8E2
:1092A4005490374217D02368C8F800609BB1A16876
:1092B40062680131A16028469847637B012B0AD17B
:1092C40048B909EB4513197B1A7F60F3410160F338
:1092D400410219731A770135082D4FEA460604F145
:1092E4001004DED1BDE8F88300000440CC2800203F
:1092F400502004404C29002070B504460125084E36
:1093040004B970BD94FAA4F0B0FA80F005FA00F341
:1093140024EA030456F82030002BF1D09847EFE7F5
:10932400502A00204FF00072044BC3F880211A60C9
:109334004FF08062C3F880211A60704700E100E0BA
:1093440038B504460D4601F0FCFE034B43F82450A7
:10935400BDE8384001F0FBBE502A0020084BD3F88A
:109364002404D3F82024104042F2204220F42A504E
:1093740020F02A004004400C9850FFF7BDBF00BF06
:1093840000C00340084BD3F82404D3F82024104031
:1093940042F2204220F4AA4020F055000004000CC0
:1093A4009850FFF7A9BF00BF00C00340104A30B572
:1093B400136841611546ABB91060836011E0091B65
:1093C4009C6841611A467CB123465C698C42F6D99B
:1093D400002CF4D052B19060836013B15A69511AD1
:1093E400596130BD0022F0E72346F4E72860F3E733
:1093F400A02A002010B500F051FA094B094A196857
:1094040031B11368C41A4B69A34203D31B1B4B61CC
:10941400106003E0C01A002310604B6110BD00BF50
:10942400A02A0020942A0020074B10B51B680220B4
:109434005C69064B1B681C4400F056FA2046BDE8E4
:10944400104000F032BA00BFA02A0020942A002065
:1094540070B59DF81450164605710025049A856070
:10946400BDF818500446C5800260C0E903360D46B5
:1094740029B961610BB11146984796B1354601F09F
:1094840060FE0646FFF7B6FF29462046FFF78EFF2B
:10949400054B1B68A34201D1FFF7C6FF304601F01C
:1094A40056FE002070BD00BFA02A002000210C4AF7
:1094B40013687BB183420AD1836879B18B60836876
:1094C4001BB15A6941690A445A6100207047194620
:1094D4009B68EEE70028EFD0022070471360EEE7A8
:1094E400A02A002070B501F02CFE104D06462C7801
:1094F400BCB90F4B1C600F4B1C600F4B1C7000F071
:1095040093F9012000F0F0F900F022FA2346024614
:1095140040F2E731094835F0E3FA094B18600123BA
:109524002B70304601F013FE002070BD902A0020FD
:10953400A02A0020942A00209C2A002018FCFFFF67
:10954400982A0020F8B5054600B301F0FAFD104C46
:109554000646FFF74FFF2268AA420DD1022000F011
:10956400CFF901272846FFF7A1FF054630B1304661
:1095740001F0EDFD2846F8BD0027F3E7002FF6D0F3
:109584002368002BF3D0FFF74FFFF0E72225F1E724
:10959400A02A0020F0B50D4685B016461F460446A5
:1095A40080B1FFF7CFFFBDF82C30002202939DF865
:1095B40028302946CDE9007320463346FFF748FF9B
:1095C40005B0F0BD2220FBE738B50C46054698B13E
:1095D40091B100230B7001F0B4FD0121074B1B680E
:1095E4000BB122781AB101F0B2FD002038BD9D42C2
:1095F4000CBF21709B68F3E72220F7E7A02A002024
:10960400F0B51F46002387B00D4616468DF8173077
:109614000446A0B10DF11701FFF7D6FF9DF81720FE
:109624007AB9BDF83430294602939DF8303020468B
:10963400CDE900733346FFF70BFF07B0F0BD2220DE
:10964400FBE70320F9E70000F8B50C460646C8B16D
:10965400C1B101F076FD0546FFF7CCFE73692360C6
:10966400134B1B68B3420FD023B9284601F06FFD9A
:1096740003201CE0596922689B680A442260F1E7D0
:1096840000230FE0222012E0276800F007F9094EBA
:109694003368C01A8742F3D900F000F93368C01A5E
:1096A40023681B1A2846236001F051FD0020F8BDF1
:1096B400A02A0020942A002000F0F0B838B50A4B04
:1096C40004461B680D4683420CD300F041F94FF465
:1096D4007A720023A4FB000135F002FA01302860FD
:1096E400002038BD2120FCE7982A002038B5044624
:1096F40000F02EF94FF47A73A4FB0345A8B1431E7E
:10970400034212D100F024F9B0FA80F3C3F11F032D
:10971400C3F12002A3F1200005FA02F224FA03F3B4
:10972400134325FA00F0184338BD00F011F9002363
:1097340002462946204635F0D3F9F5E7C2072DE95C
:10974400F84F044608D5354A13780133DBB2137059
:10975400FFF750FEFFF768FEA3075DD500F09EF803
:109764002F4E074635684FF0000A451B01F0E9FC0F
:109774008046DFF8B090D9F80040002C44D06369EB
:10978400AB4205D95D1B65613760FFF74DFE3EE0D6
:1097940023462A4637605969914209D8187994F8C2
:1097A40004C0521A844588BF1C469B68002BF2D122
:1097B400404601F0CCFCD4F81480C4F814A001F0A5
:1097C400C0FC83462046FFF771FE584601F0BFFCFB
:1097D40023694BB101F0B5FC834621692046FFF7AC
:1097E400E5FD584601F0B3FCE36813B12168204657
:1097F400984700F053F84744ED1B0446054401F034
:10980400A0FC27468046B6E7022000F079F84046DF
:10981400BDE8F84F01F09BBCBDE8F88F9C2A0020FE
:10982400942A0020A02A00201FB5194B18689A8892
:10983400029053F8060FADF80C201B7900908DF8B8
:109844000430002302A88DF808308DF80C3001F0A4
:10985400D9FE6946012001F099FE4FF090431F2183
:109864009A6922F01F029A610A4A11609A6A12F0F8
:109874000802FBD11A62012001F0A2FE4FF48062BB
:10988400054BC3F880211A6005B05DF804FB00BFE6
:10989400982504001420004800E100E04FF09043B4
:1098A4009A6A1207FCD4186A70474FF09042936A80
:1098B4001907FCD4136A116C5269120704D4CA1A2A
:1098C400022A01D899420ED1C21A012A98BF981CC3
:1098D400B0F1FF3F28BF01304FF0904318649A69FC
:1098E40042F008029A61704782074FF0904200F0FC
:1098F4000103916948BF43F008030B439361704728
:109904004FF0904100F0010283078B6948BF42F099
:10991400080223EA02038B617047000010B501F0CE
:1099240010FC4FF0904304465B691A07074A03F0A2
:10993400010003F00D0348BF40F002001360FFF77D
:10994400FDFE2046BDE8104001F001BC1420004893
:109954001B2001F007B90000002211462D48F0B584
:1099640003682D4D54592CB11E68AC18002E3DD1FE
:10997400234601210832282AF4D101B103600022D0
:1099840014462649264E0B6895592DB11F68B51803
:10999400002F32D12B4601240832282AF4D104B1F5
:1099A4000B6000680368002B2FD04FF04022936FA8
:1099B400007923F0FF7323F4803343EA0043936771
:1099C400184B4FF0004209681A600B68FBB14FF066
:1099D4004022936F097923F4FF7323F001030B43AF
:1099E4009367104B4FF080421A60F0BD1E792779BF
:1099F400B74284BF23460121BCE71F7995F804C010
:109A0400BC453CBF2B460124C6E7074BD9E7064BB0
:109A1400E8E700BFA82A0020B82A0020AC2A0020CA
:109A2400E02A0020685000406860004010B5012220
:109A340028240F4B00211A700E48224635F03CFAB8
:109A4400224600210C4835F037FA0C4B0C4A1360BF
:109A54000C4A13604FF040430B4A136053602022BA
:109A64000A4BC3F880211A60FFF776FF002010BD6F
:109A7400A42A0020B82A0020E02A0020B02A0020CE
:109A8400A82A0020AC2A00206460004000E100E025
:109A94004FF04023D3F888006FF48873C0F3880034
:109AA400184440B2704700004FF0402208B5936E4E
:109AB400526E134013F0804111D0114B1B681A6889
:109AC4002AB1002119605960FFF7E2FF90474FF077
:109AD40080420C4B1A60BDE80840FFF73DBF002BE5
:109AE400F9DA094B1B681A682AB119605960FFF743
:109AF400CFFF01219047034B4FF00042EAE700BF3C
:109B0400AC2A002064600040A82A0020FFF7CCBFE4
:109B1400012203685A619A69D207FCD541F2AC521A
:109B2400042103795B0103F1804303F570339950F9
:109B34007047000038B141B1013AB2F5006F0448F2
:109B440038BF00207047034870470148704700BF82
:109B5400037000F0027000F038B504460D4601F0C1
:109B6400F0FAA28892B222B92A6001F0F0FA06480B
:109B740038BD1422638802FB034308332B6001F0D1
:109B8400E6FA0020F4E700BF0B7000F038B5044695
:109B94000D4601F0D6FAA3889BB223B92B6001F0DD
:109BA400D6FA0C4838BD14226388E18802FB0343CB
:109BB40008332B6063885A1C92FBF1F301FB1323D7
:109BC4009BB26380A388013B9BB2A38001F0BFFAE0
:109BD4000020E7E70B7000F090F83130022B0BD136
:109BE4003022437F90F821005A43044B9B5823FAB8
:109BF40000F000F0010070470020704714C00340DB
:109C0400002313B51C4A52F8234094F821108142D2
:109C14000ED00133042BF6D102B010BD0028FBD1C5
:109C24009DF80730002BF7D0A068FFF781FAF3E71F
